:020000040800F2
:10000000804A00209D010008D5150008FF12000855
:10001000D11500088B020008FD190008000000003F
:1000200000000000000000000000000005010008C2
:100030008D05000800000000490100087117000844
:10004000B7010008B7010008B7010008B7010008B0
:10005000B7010008B7010008B7010008B7010008A0
:10006000B7010008B7010008B7010008B701000890
:10007000B7010008B7010008B7010008B701000880
:10008000B7010008B7010008B7010008B701000870
:10009000B7010008B7010008B7010008B701000860
:1000A000B7010008B7010008B7010008B701000850
:1000B000B7010008B7010008B7010008B701000840
:1000C000B7010008B7010008B7010008B701000830
:1000D000B7010008B7010008B7010008B701000820
:1000E000B7010008B7010008B7010008DFF810D019
:1000F00000F08EF8004800477D290008AFF300802B
:10010000804A0020224B19680868B0E8F00F80F39D
:100110000988BFF36F8F4FF0000080F311884EF015
:100120000D0E70470000000006480068006880F36C
:10013000088862B661B6BFF34F8FBFF36F8F00DFE1
:1001400000BF00BF08ED00E0EFF30980BFF36F8F41
:100150000F4B1A6820E9F00F106008B54FF0BF0090
:1001600080F31188BFF34F8FBFF36F8F03F052F905
:100170004FF0000080F31188BDE808401968086856
:10018000B0E8F00F80F30988BFF36F8F704700BFAE
:1001900010000020EFF305807047000006488047FC
:1001A00006480047FEE7FEE7FEE7FEE7FEE7FEE75C
:1001B000FEE7FEE7FEE7FEE7EB170008ED000008AC
:1001C000D2B201E000F8012B491EFBD27047002299
:1001D000F6E710B513460A4604461946FFF7F0FF46
:1001E000204610BD30B50B460146002020220124D8
:1001F00009E021FA02F59D4205D303FA02F5491BF5
:1002000004FA02F52844151EA2F10102F1DC30BD0A
:10021000064C074D06E0E06840F0010394E8070053
:1002200098471034AC42F6D3FFF764FF88380008D3
:10023000A838000870B58C1810F8015B15F007039A
:1002400001D110F8013B2A1106D110F8012B03E06F
:1002500010F8016B01F8016B5B1EF9D12B0705D477
:100260000023521E0DD401F8013BFAE710F8013BC0
:10027000CB1A921C03E013F8015B01F8015B521EDC
:10028000F9D5A142D8D3002070BD00BFFEE7C10060
:1002900000E000BF0A1EA1F10101FAD17047000081
:1002A00010B50122D103044800F00CFB4FF47A7022
:1002B00003F058F810BD0000000C01402DE9F04794
:1002C00005460F4600224FF40041484800F0FAFA74
:1002D000142003F047F80122D103444800F0F2FA59
:1002E00002F0ECFF424E00BF4FF400413F4800F0E7
:1002F000E1FA012803D1301EA6F10106F4D100BFB6
:100300004FF40041394800F0D5FA18B9301EA6F173
:100310000106F5D100BF4FF40041344800F0CAFA9D
:10032000012803D1301EA6F10106F4D126B9002020
:1003300028703870BDE8F08700242DE000202D499A
:100340000855814624E000BF4FF40041274800F0E3
:10035000B1FA0128F8D02820FFF799FF4FF40041A7
:10036000224800F0A7FA012810D12248005DC4F10C
:1003700007020121914008431E49085500BF4FF470
:1003800000411A4800F096FA0128F8D009F1010955
:10039000B9F1080FD7DB641C052CCFDB15480078BA
:1003A0001449497808441349897808441149C9789F
:1003B00000EB010808F0FF000E490979884210D1CE
:1003C0000C48807840B228700A48007840B23870F3
:1003D0000848C07800F0800018B12878404240B248
:1003E000287002F07DFF00BFA4E70000000C014070
:1003F000FFFF0F00B8000020C10000E000BF0A1E90
:10040000A1F10101FAD1704770B5054645F001052B
:100410000026002204212B4800F054FA002201217A
:10042000284800F04FFA01220421264800F04AFA39
:100430000520FFF7E1FF00241CE00120A040284038
:1004400028B1012202211F4800F03CFA04E00022FA
:1004500002211C4800F036FA01221146194800F02A
:1004600031FA0120FFF7C8FF00220121154800F0F2
:1004700029FA641C082CE0DB01220221114800F05B
:1004800021FA002415E002210E4800F013FA18B1F9
:100490000120A0403043C6B2072C09DA01221146E0
:1004A000084800F00FFA00220121064800F00AFA7D
:1004B000641C082CE7DB00220421024800F002FA49
:1004C000304670BD0008014070B504460E4604F089
:1004D000FE04002204212C4800F0F4F9002201213E
:1004E000294800F0EFF901220421274800F0EAF939
:1004F0000520FFF781FF00251CE00120A8402040D7
:1005000028B101220221204800F0DCF904E0002299
:1005100002211D4800F0D6F9012211461A4800F0C8
:10052000D1F90120FFF768FF00220121164800F0F1
:10053000C9F96D1C082DE0DB00251CE00120A84056
:10054000304028B1012202210F4800F0BBF904E03D
:10055000002202210C4800F0B5F9012211460A4898
:1005600000F0B0F90120FFF747FF00220121064803
:1005700000F0A8F96D1C082DE0DB002204210248E0
:1005800000F0A0F970BD000000080140704772B68D
:1005900000BFFEE72DE9F8470346002294466EE1CE
:1005A0004FF0010808FA02F4D1F8008008EA0400CC
:1005B000A0427DD1DFF8DCA2D1F80480A8EB0A09C3
:1005C000D0453AD014DCB8F1030F50D009DCB8F1B3
:1005D000000F31D0B8F1010F1CD0B8F1020F49D192
:1005E00020E0B8F1110F18D0B8F1120F42D11EE07F
:1005F000B9F5881F25D006DCB9F5803F20D0B9F5C4
:10060000801F37D11AE0B9F5001F18D0B9F5041FC3
:1006100030D117E0D1F80CC02DE0D1F80C8008F1F2
:10062000040C28E0D1F80C8008F1080C23E0D1F884
:100630000C8008F10C0C1EE000BF00BF00BF00BF23
:1006400000BF00BFD1F80880B8F1000F02D14FF011
:10065000040C0BE0D1F80880B8F1010F03D14FF082
:10066000080C1C6102E04FF0080C5C6103E04FF0E5
:10067000000C00E000BF00BFFF2801D8984601E051
:1006800003F104084646FF2802D84FEA820803E037
:10069000A2F108084FEA88084746D6F800804FF0D4
:1006A0000F0909FA07F928EA09080CFA07F900E026
:1006B00088E048EA0908C6F80080D1F8048008F00C
:1006C0008058B8F1805F7DD100BFDFF8CC81D8F8C9
:1006D000188048F00108DFF8C091C9F81880C846B2
:1006E000D8F8188008F00108CDF8008000BF00BFDE
:1006F0004FEAB9384FEA920958F829504FEA827800
:100700004FEA18794FF00F0808FA09F825EA0805AA
:10071000DFF88881434502D14FF0000816E0DFF88A
:100720008081434502D14FF001080FE0DFF874816A
:10073000434502D14FF0020808E0DFF86C814345E1
:1007400002D14FF0030801E04FF004084FEA82792C
:100750004FEA197908FA09F848EA0505DFF84C81EB
:100760004FEA920948F82950D1F8048008F480181B
:10077000B8F5801F0AD1DFF83881D8F8008048EA40
:100780000008DFF82C91C9F8008009E0DFF820812B
:10079000D8F8008028EA0008DFF81491C9F8008032
:1007A000D1F8048008F40018B8F5001F10D1DFF864
:1007B000008108F10408D8F8008048EA0008DFF852
:1007C000F09000E05AE009F10409C9F800800DE05A
:1007D000DFF8DC8008F10408D8F8008028EA000877
:1007E000DFF8CC9009F10409C9F80080D1F8048041
:1007F00008F40038B8F5003F0ED1DFF8B480A8F156
:100800000408D8F8008048EA0008DFF8A490A9F1AD
:100810000409C9F800800DE0DFF89480A8F104080D
:10082000D8F8008028EA0008DFF88490A9F10409CC
:10083000C9F80080D1F8048008F48038B8F5803F0A
:100840000ED1DFF86C80A8F10808D8F8008048EADB
:100850000008DFF85C90A9F10809C9F800800DE0F4
:10086000DFF84C80A8F10808D8F8008028EA0008D2
:10087000DFF83C90A9F10809C9F80080521CD1F8B2
:10088000008028FA02F8B8F1000F7FF489AEBDE8C5
:10089000F88700000000111000100240000801401D
:1008A000000C01400010014000140140080001400C
:1008B00008040140024693680B400BB1012000E0A0
:1008C000002070470AB1016101E00B040361704729
:1008D00001480068704700000000002003480068DD
:1008E0000349097808440149086070470000002066
:1008F0000800002010B50848006840F010000649C4
:100900000860032000F098F80F2000F007F800F0CE
:100910002BF8002010BD00000020024070B50446F6
:100920000E4800784FF47A71B1FBF0F00C49096879
:10093000B1FBF0F5284600F0E9FB08B1012070BDDD
:10094000102C07D200222146501E00F037F805482F
:10095000046001E00120F2E70020F0E70800002039
:100960000C0000200400002008B500BF1148806979
:1009700040F001000F4988610846806900F00100DD
:10098000009000BF00BF00BF0846C06940F0805023
:10099000C8610846C06900F08050009000BF00BFE9
:1009A00000BF0549486820F0E06040F000704860F2
:1009B00000BF08BD00100240000001402DE9F05FBB
:1009C00080460D461646002701F02AF807463946AC
:1009D0002A46334601F00700C0F1070ABAF1040FB6
:1009E00002D94FF0040A01E0C0F1070AD14600F134
:1009F000040ABAF1070F02D24FF0000A01E0A0F199
:100A0000030AD4464FF0010A0AFA09FAAAF1010AC8
:100A10000AEA020A0AFA0CFA4FF0010B0BFA0CFB75
:100A2000ABF1010B0BEA030B4AEA0B0421464046EB
:100A300000F0FEFFBDE8F09F00BF00F00702064B8C
:100A400019684FF6FF031940044B0B4343EA022198
:100A5000014B196000BF70470CED00E00000FA0583
:100A600070B504460D460CB9012070BD5A480068A7
:100A700000F00700A8420ED25748006820F0070097
:100A80002843554908600846006800F00700A8425E
:100A900001D00120E9E7207800F0020002281DD1F2
:100AA000207800F00400042805D14C48406840F448
:100AB000E0604A494860207800F00800082805D125
:100AC0004648406840F460504449486043484068A4
:100AD00020F0F000A168084340494860207800F009
:100AE000010078B36068012806D13C48006800F432
:100AF000003090B90120B8E76068022806D1374875
:100B0000006800F0007040B90120AEE7334800688B
:100B100000F0020008B90120A7E73048406820F043
:100B20000300616808432D494860FFF7D1FE06467F
:100B300009E0FFF7CDFE801B41F28831884202D9DF
:100B4000032092E707E02548406800F00C00616848
:100B5000B0EB810FEDD12048006800F00700A842FB
:100B60000ED91D48006820F0070028431A49086084
:100B70000846006800F00700A84201D0012074E791
:100B8000207800F00400042807D11448406820F4BD
:100B9000E060E168084311494860207800F00800EF
:100BA000082808D10D48406820F46050216940EAC7
:100BB000C1000A49486000F03FF808494968C1F39C
:100BC0000311074A515CC84006490860064800689E
:100BD000FFF7A4FE002048E700200240001002407A
:100BE0006E3800080C000020040000200148006856
:100BF000704700000C00002000B5FFF7F7FF044924
:100C00004968C1F30221034A515CC84000BD00009D
:100C1000001002407E38000800B5FFF7E7FF0449E6
:100C20004968C1F3C221034A515CC84000BD0000BD
:100C3000001002407E38000870B500210022002418
:100C400000230020134D696801F00C05F5B1042D57
:100C500002D0082D19D101E00F4819E00F4DC1F362
:100C60008346AB5D01F4803555B10A4D6D68C5F31F
:100C700040450B4E725D084D5D43B5FBF2F402E05A
:100C8000084D03FB05F4204602E000BF024800BF08
:100C900000BF70BD0010024000127A005C380008EE
:100CA0006C38000800093D00F8B504460CB9012075
:100CB000F8BD207800F00100002878D0F84840689E
:100CC00000F00C0004280CD0F548406800F00C003F
:100CD000082811D1F248406800F48030B0F5803F18
:100CE0000AD1EF48006800F4003000285FD0606847
:100CF00000285CD10120DBE700BF6068B0F5803FD1
:100D000006D1E748006840F48030E549086028E0F3
:100D1000606858B9E248006820F48030E049086013
:100D20000846006820F4802008601AE06068B0F58A
:100D3000A02F0BD1DA48006840F48020D849086021
:100D40000846006840F4803008600AE0D448006833
:100D500020F48030D24908600846006820F48020E2
:100D6000086000BF606888B1FFF7B2FD054606E085
:100D7000FFF7AEFD401B642801D9032098E7C8485F
:100D8000006800F400300028F2D010E0FFF7A0FD6A
:100D9000054606E0FFF79CFD401B642801D90320AF
:100DA00086E7BF48006800F400300028F2D12078C0
:100DB00000F00200022857D1B948406800F00C004A
:100DC00050B1B748406800F00C00082818D1B4486A
:100DD000406800F4803098B9B148006800F0020023
:100DE00020B12069012801D0012061E7AC480068EA
:100DF00020F0F800616940EAC100A949086033E0C9
:100E00002069E8B10120A7490860FFF761FD0546A8
:100E100006E0FFF75DFD401B022801D9032047E7EC
:100E20009F48006800F002000028F2D09C4800684B
:100E300020F0F800616940EAC1009949086013E0B8
:100E4000002098490860FFF743FD054606E0FFF7DC
:100E50003FFD401B022801D9032029E79048006884
:100E600000F002000028F2D1207800F008000828E5
:100E70002DD1A069B8B101208B490860FFF728FD8A
:100E8000054606E0FFF724FD401B022801D9032098
:100E90000EE78348406A00F002000028F2D00120EB
:100EA00000F052FC13E000207F490860FFF710FDBE
:100EB000054606E0FFF70CFD401B022801D9032080
:100EC000F6E67748406A00F002000028F2D1207868
:100ED00000F00400042873D100277148C06900F0B5
:100EE000805070B900BF6E48C06940F080506C49B6
:100EF000C8610846C06900F08050009000BF00BF84
:100F000001276A48006800F48070B0B9674800683B
:100F100040F4807065490860FFF7DAFC054606E09A
:100F2000FFF7D6FC401B642801D90320C0E65F48C8
:100F3000006800F480700028F2D000BFE06801284B
:100F400006D15748006A40F001005549086227E081
:100F5000E06858B95248006A20F001005049086220
:100F60000846006A20F00400086219E0E0680528DD
:100F70000BD14B48006A40F004004949086208461A
:100F8000006A40F0010008620AE04548006A20F06B
:100F90000100434908620846006A20F00400086224
:100FA00000BFE068A0B1FFF793FC054609E0FFF73A
:100FB0008FFC401B41F28831884202D9032077E63A
:100FC00022E03748006A00F002000028EFD012E06B
:100FD000FFF77EFC054608E0FFF77AFC401B41F274
:100FE0008831884201D9032062E62D48006A00F06A
:100FF00002000028F0D1012F05D12948C06920F056
:1010000080502749C86100BFE069C8B324484068E0
:1010100000F00C00082860D0E069022848D10020C8
:1010200020490866FFF754FC054606E0FFF750FC30
:10103000401B022801D903203AE61948006800F055
:1010400000700028F2D1206AB0F5803F07D1144823
:10105000406820F40030A168084311494860D4E991
:10106000080108430E49496821F4741108430C49EA
:10107000486001200B490866FFF72AFC054607E097
:101080003DE0FFF725FC401B022801D903200FE6B5
:101090000348006800F000700028F2D02FE0000044
:1010A00000100240000042428004424200700040B2
:1010B000002014490866FFF70BFC054606E0FFF721
:1010C00007FC401B022801D90320F1E50E48006807
:1010D00000F000700028F2D111E0E069012800D191
:1010E000E6E50948466806F48031206A814204D169
:1010F00006F47011606A814201D00120D8E5002019
:10110000D6E50000000042420010024070B50446DF
:101110002546681EB0F1807F01D301200FE0681ED4
:101120004FF0E02148610F214FF0FF3000F080FCCC
:1011300000204FF0E021886107200861002070BD89
:1011400010B504460CB9012010BDA06900B100E043
:1011500000BF94F8410028B9002084F840002046E0
:1011600000F02AF8242084F841002068C06820F4A8
:1011700000502168C860204600F07CFB20680069B0
:1011800020F49040216808612068406920F02A001E
:10119000216848612068C06840F400502168C86038
:1011A00000206064202084F8410084F84200002080
:1011B000606300BFC8E7000010B586B00446002099
:1011C00002900390049005901A49206888422ED11D
:1011D00000BF1948806940F480401749886108467B
:1011E000806900F48040019000BF00BF00BF084646
:1011F000806940F0040088610846806900F00400BE
:10120000019000BF00BF4815029002200390032008
:10121000059002A90948FFF7BDF94FF480600290DC
:1012200000200390049002A90448FFF7B3F906B028
:1012300010BD0000003801400010024000080140CD
:101240002DE9F84F04460E46174699464FF0000A1E
:1012500094F84100202850D106B117B90120BDE80B
:10126000F88F00206064212084F84100FFF730FBF4
:101270008246A784E784A068B0F5805F04D1206926
:1012800010B90025B04602E035464FF000081EE0D8
:101290005346002280212046CDF8009000F068FBE4
:1012A00020B1202084F841000320D8E745B9B8F8E0
:1012B0000000C0F308002168486008F1020803E05C
:1012C0002878216848606D1CE08C401EE084E08C2A
:1012D0000028DDD15346002240212046CDF8009061
:1012E00000F046FB20B1202084F841000320B6E73F
:1012F000202084F841000020B1E70220AFE700BFC2
:10130000FEE7000070B50121354800F071FE08B11C
:10131000032070BD0221324800F06AFE08B10420AB
:10132000F7E780212F4800F063FE08B10720F0E7BF
:101330004FF480712B4800F05BFE08B10820E8E70D
:1013400004212748FFF7B6FA08BB0A2002F00AF882
:1013500004212348FFF7AEFA00283ED102F002F93B
:10136000054602E0012001F0FDFF04211C48FFF7C3
:10137000A1FA0028F6D002F0F5F80446601B40F60A
:10138000B831884201D30220C3E70120C1E74021E0
:101390001448FFF78FFA00BB0A2001F0E3FF402159
:1013A0001048FFF787FAC0B902F0DCF8054602E002
:1013B000012001F0D7FF40210A48FFF77BFA0028FF
:1013C000F6D002F0CFF80446601B40F6B8318842F0
:1013D00001D306209DE705209BE7002099E7000048
:1013E000000C01400008014010B54FF48061044832
:1013F000FFF760FA08B9012010BD0020FCE70000EB
:10140000000C014010B54FF400610448FFF752FA98
:1014100008B9012010BD0020FCE70000000C0140CD
:1014200010B54FF400510448FFF744FA08B9012001
:1014300010BD0020FCE70000000C014000B585B0A5
:101440000020019002900390049000BF4F488069F3
:1014500040F020004D4988610846806900F0200076
:10146000009000BF00BF00BF0846806940F0040044
:1014700088610846806900F00400009000BF00BF4A
:1014800000BF0846806940F008008861084680690E
:1014900000F00800009000BF00BF002225213C485A
:1014A000FFF710FA012249F612013948FFF70AFA4C
:1014B000012249F238313748FFF704FA0022C021EF
:1014C0003448FFF7FFF949F63500019001200290FA
:1014D000002003900320049001A92D48FFF75AF83B
:1014E000022001901120029000200390032004901C
:1014F00001A92748FFF74EF84FF4E470019000204F
:1015000002900120039001A92148FFF743F840F61B
:1015100007400190002002900120039001A91D487E
:10152000FFF738F84FF4805001900120029000201E
:1015300003900220049001A91648FFF72BF84FF4FE
:10154000C040019000200290039001A91148FFF7CC
:1015500021F84FF4004001901120029000200390E8
:101560000320049001A90B48FFF714F84FF47E7094
:10157000019001200290002003900320049001A913
:101580000448FFF707F805B000BD00000010024056
:1015900000080140000C014010B50B480B490860E1
:1015A0004FF4E1304860002108488160C16001616A
:1015B0000C21416100218161C161FFF7C1FD08B1CA
:1015C000FEF7E5FF10BD000000380140600100207B
:1015D00000BFFEE700BFFEE710B54FF4FA7001F060
:1015E000C1FE10BD70B5044602E00A2001F0BAFE4B
:1015F00008210C48FFF75EF90028F6D0642001F0BE
:10160000B1FEF12000F056F8204600F053F8F32028
:1016100000F050F804F5F270C5B2284600F04AF820
:1016200070BD00000008014070B505460122102180
:101630001F48FFF747F9002210211D48FFF742F924
:10164000042001F08FFE002426E00120A040284065
:1016500080B1012210211648FFF734F9032001F070
:1016600081FE002210211248FFF72CF9012001F021
:1016700079FE0FE0012210210D48FFF723F9012028
:1016800001F070FE002210210948FFF71BF903202A
:1016900001F068FE601CC4B2082CD6DB01221021C8
:1016A0000348FFF70FF9642001F05CFE70BD0000F5
:1016B0000008014070B50446012210212148FFF7BF
:1016C00001F904F0010028B1012220211D48FFF793
:1016D000F9F804E0002220211A48FFF7F3F800226D
:1016E00010211848FFF7EEF8052001F03BFE002519
:1016F00020E00120A840204028B1012220211148EB
:10170000FFF7E0F804E0002220210E48FFF7DAF8A6
:10171000002210210B48FFF7D5F8012001F022FE2E
:10172000012210210748FFF7CDF8012001F01AFE31
:10173000681CC5B2082DDCDB012220210148FFF71F
:10174000C1F870BD0008014008B508490968C9081A
:101750004FF47A72B1FBF2F14143009100BF00BF38
:1017600000994A1E00920029F9D108BD0C00002002
:1017700010B501F0E7FE012801D001F095FEFFF75A
:10178000ADF810BD00B58FB0282105A8FEF71FFDEC
:1017900014216846FEF71BFD012005900004069009
:1017A000002007900120099002200C90C1030D91A8
:1017B0004FF4E0110E9105A8FFF776FA08B1FEF795
:1017C000E6FE0F20009002200190002002904FF4CE
:1017D000806003900020049002216846FFF740F9E2
:1017E00008B1FEF7D4FE0FB000BD704710B54FF43E
:1017F00080410448FFF75EF808B9012010BD0020C1
:10180000FCE70000000C014000BF00BF02680C3282
:1018100052E8002F22F4907102680C3242E8001363
:10182000002BF3D100BF00BF00BF0268143252E8A2
:10183000002F22F001010268143242E80013002B4D
:10184000F3D100BF016B01290ED100BF00BF0268B8
:101850000C3252E8002F22F0100102680C3242E8EC
:101860000013002BF3D100BF202180F8421000218B
:101870000163704770B504462168096921F440513D
:10188000E2681143226811612269A168114362690B
:1018900041EA02052168C96841F20C62914329437B
:1018A0002268D1602168496921F44071A26911431D
:1018B000226851612D4A2168914202D1FFF7ACF9AB
:1018C00001E0FFF799F900EBC00101EB001162683C
:1018D0009200B1FBF2F100EBC00202EB0012636870
:1018E0009B00B2FBF3F26423B2FBF3F202EBC20300
:1018F00003EB0212A1EB8201322202EB01116422FE
:10190000B1FBF2F101F0F00100EBC00202EB0012BA
:1019100063689B00B2FBF3F26423B2FBF3F201EBCA
:10192000021200EBC00101EB001163689B00B1FBE8
:10193000F3F100EBC00303EB00136668B600B3FBE2
:10194000F6F36426B3FBF6F303EBC30606EB0313CF
:10195000A1EB8301322303EB01116423B1FBF3F10B
:1019600001F00F0111442268916070BD0038014000
:101970002DE9F84304460D4617469846089E31E087
:10198000701C70B3FEF7A4FFA0EB0800B04200D8B3
:1019900016B90320BDE8F8832068C06800F0040091
:1019A000F8B1802D1ED0402D1CD020680068C0F3F7
:1019B000C000B0B100BF0020009020680068009017
:1019C00020684068009000BF00BF2046FFF71CFF62
:1019D0000820606400BF002084F8400000BF0120A0
:1019E000D8E7FFE7206800682840A84201D101201D
:1019F00000E00020B842C3D00020CBE700BFFEE7E4
:101A00000FB4054B10B503A9044A029800F034F84E
:101A100010BC5DF814FB0000D51F00085C0100201D
:101A200002480068C0F30220704700000CED00E09F
:101A300010B5002804DB0A07130E054A135406E00C
:101A40000A07140E034A00F00F031B1FD45410BDE5
:101A500000E400E018ED00E002E008C8121F08C131
:101A6000002AFAD170477047002001E001C1121F1F
:101A7000002AFBD1704700002DE9FF4F8BB09A463A
:101A80000F460546002606E025280BD052460D9944
:101A900090476D1C761C28780028F5D10FB0304691
:101AA000BDE8F08F0024A0460122604900E0044315
:101AB00015F8013F203B02FA03F00842F7D12878DD
:101AC0002E2817D115F8010F44F004042A280ED04F
:101AD0006FF02F022878A0F1300109290AD808EB0D
:101AE000880102EB410100EB01086D1CF2E757F899
:101AF000048B6D1C287869283ED006DC0028CDD0E8
:101B000063280BD0642804D136E0732810D07528E0
:101B10004BD052460D999047761C85E017F8040B80
:101B20008DF8000000208DF80100E946012003E057
:101B300057F8049B4FF0FF3061074FF0000401D4C9
:101B40000AE0641C44450DDA8442FADB19F80410FB
:101B50000029F6D106E0641C8442FCDB19F804106D
:101B60000029F8D1264404E019F8010B52460D99DA
:101B70009047641EF8D257E001CF4FF00A0B0028BF
:101B800002DA40422D2102E0210504D52B218DF8F7
:101B90002410012103E0E10705D02021F7E70DF132
:101BA000200908910CE00021F9E701CF4FF00A0B62
:101BB000F9E75946FEF716FB01F1300209F8012D4D
:101BC0000028F6D1ADEB090000F1200B600701D42D
:101BD0004FF00108D84502DDA8EB0B0000E0002023
:101BE0008046002406E009A85246005D0D99904702
:101BF000641C761C08988442F5DB04E030205246D1
:101C00000D999047761CB8F10001A8F10108F5DCA8
:101C100005E019F8010B52460D999047761CBBF16F
:101C20000001ABF1010BF4DC6D1C34E70928010065
:101C30002DE9F04704468C20FEF7E6FB074607F047
:101C40000F00391101EB810100EB41002080882059
:101C5000FEF7DAFB804608F00F004FEA281101EB8F
:101C6000810100EB4100A0708620FEF7CDFB81468C
:101C700009F00F004FEA291101EB810100EB41004F
:101C8000E0708A20FEF7C0FB82460AF00F00207148
:101C90008420FEF7B9FB054605F08000A8B10120BD
:101CA000607205F0200010B10120207201E00020D8
:101CB000207205F0100020B105F00F000A306071AD
:101CC00018E005F00F00607114E00020607205F06C
:101CD000200020B105F00F00143060710AE005F01B
:101CE000100020B105F00F000A30607102E005F02D
:101CF0000F006071607A38B1207A18B160790C30C9
:101D000040B26071002060728220FEF77DFB0646C3
:101D100006F00F00311101EB810100EB410040B2F0
:101D2000A071BDE8F0872DE9F04F89B0044600218D
:101D30008E20FEF7C9FB2088642190FBF1F201FBA5
:101D400012000A2190FBF1F0C0B20890208890FBAD
:101D5000F1F201FB1200C0B20790DDE9070240EA90
:101D60000210C1B28C20FEF7AFFBA0780A2190FBD5
:101D7000F1F0C0B20690A07890FBF1F201FB1200E6
:101D8000C0B20590069800F00102059840EA0211E1
:101D90008820FEF799FBE0780A2190FBF1F0C0B2B1
:101DA0000490E07890FBF1F201FB1200C0B20390C6
:101DB000049800F00302039840EA02118620FEF71F
:101DC00083FB94F905000C2820DD94F905000C38FC
:101DD0000A2190FBF1F000F0FF0B94F905000C389C
:101DE00090FBF1F201FB1200C0B20290029890FB4E
:101DF000F1F201FB1200A02141EA0B110843C0B22D
:101E0000014601908420FEF75FFB1EE094F9050077
:101E10000A2190FBF1F000F0FF0B94F9050090FB14
:101E2000F1F201FB1200C0B20290029890FBF1F2B5
:101E300001FB1200802141EA0B110843C0B20146A8
:101E400001908420FEF740FB00BF94F906000A21B0
:101E500090FBF1F000F0FF0994F9060090FBF1F21D
:101E600001FB120000F0FF0A4AEA0910C1B2822009
:101E7000FEF72AFB00218020FEF726FB2588642040
:101E800095FBF0F0C7B294F80280B8F1010F02D0D0
:101E9000B8F1020F05D1681E85B208F10C0000F000
:101EA000FF0808F101021A235A430A2392FBF3F2B6
:101EB000EB1705EB937305EBA3034FEAE77C07EB06
:101EC0009C7C03EBAC034FF0020C0CFB17331A4461
:101ED000E3781A44521E16B201E0F01D06B2002E3D
:101EE000FBDB072096FBF0F100FB116606B9072625
:101EF000F1B28A20FEF7E8FA09B0BDE8F08F0000E1
:101F00001CB51A48012100238022CDE9001018A138
:101F10001B4801F0E3FA1B48022100238022CDE98F
:101F2000001019A11B4801F0D9FA1B480321002316
:101F30008022CDE9001019A11B4801F0CFFA1B48FF
:101F4000042100238022CDE9001019A11B4801F0D3
:101F5000C5FA1B48042100238022CDE9001019A1F5
:101F60001B4801F0BBFA01F017FA1CBD70000020FD
:101F70007461736B5F636F6C6C6563740000000069
:101F800071300008780000207461736B5F73686FB4
:101F900077000000B5300008900000207461736B7A
:101FA0005F7377697463680041310008980000200E
:101FB0007461736B5F616C61726D0000192F0008B2
:101FC000A00000207461736B5F766F6C756D6500A7
:101FD0009131000813B50C464FF6FF730122694694
:101FE0000248FFF72DF900981CBD00006001002099
:101FF00070B504460D4629462046FEF75BFC98B9AD
:102000000A2001F0AFF929462046FEF753FC58B9E3
:1020100002E0012001F0A6F929462046FEF74AFC1D
:102020000028F6D0012070BD0020FCE770B5FFF756
:10203000E9F90446FFF7D8F90546FFF7F1F9012859
:1020400005D11649087001F08DFA15490860012D77
:1020500020D1012C03D10120124908701DE00F4846
:102060000078012812D101F07DFA0D490968401A63
:1020700041F28831884203D201200A4908700CE0FD
:102080000020084908700549087006E0002005494D
:10209000087002E000200349087070BDB100002004
:1020A000B40000209400002010B5FFF72BF904467F
:1020B000092C72D2DFE804F07105101722262A35A8
:1020C000650037490978481C00EBD0714910A0EB36
:1020D0004101334A117061E001203249087000204B
:1020E0002F4908705AE02E498978481C00EBD071BE
:1020F0004910A0EB41012A4A91704FE00320294981
:1021000008704BE003202749087047E0022025496A
:1021100008700020224908700120C8700020087152
:102120003CE021480078401C1F490870087800EB0B
:10213000D0714910A0EB410159B900201849C8706D
:1021400008711948007806281AD10020164908702D
:1021500016E015480078012802D11149C8700FE037
:1021600011480078032803D101200D49087107E0C8
:102170000D480078052803D101200949C87008716D
:102180000CE007494979481C00EBD0714910A0EBDD
:102190004101034A517101E0FFE700BF00BF10BDDC
:1021A000870000207C000020B000002010B5FFF761
:1021B000A9F80446012C7CD0032C02D0042C56D163
:1021C00056E06348007878B962480088401C61494D
:1021D00008800846008840F63301884247DD4FF406
:1021E000FA605C49088042E05948007801280BD128
:1021F00058488078401C57498870084680780C28D9
:1022000035DD0120887032E05148007802280BD17A
:102210005048C078401C4F49C8700846C0781F28F5
:1022200025DD0120C87022E04948007803280DD13F
:1022300048484079401C40B246494871084690F9E8
:102240000500172813DD0020487110E04048007891
:1022500004280CD13F488079401C40B23D49887128
:10226000084690F906003B2801DD002088716CE0EB
:102270003748007868B937480088401E35490880DB
:1022800008460088B0F5FA6F47DA40F63300088058
:1022900043E02F48007801280CD12E488078401E5A
:1022A0002C49887008468078012836DA0C2088701E
:1022B00033E033E02648007802280BD12548C07867
:1022C000401E2449C8700846C078012825DA1F201E
:1022D000C87022E01E48007803280DD11D484079BF
:1022E000401E40B21B494871084690F9050000287D
:1022F00013DA1720487110E01548007804280CD133
:1023000014488079401E40B212498871084690F9FD
:102310000600002801DA3B20887116E00C4800789E
:10232000401C0B4908700846007805280CD1002095
:1023300009490870094800780649487207484078FA
:1023400008720846FFF7EFFC00BF00BF10BD000099
:102350007D000020704600207C00002087000020C7
:102360002DE9FF4F83B005460F469A46119C4FF06A
:10237000380B0A21109890FBF1F0874931F81010C2
:102380000A22109890FBF2F302FB1300834A32F802
:102390001000084400F5804080B2029000200190B7
:1023A0008046207830B1607810B14FF4004801E0E9
:1023B0004FF480480598C8B1632D04DD08F1200072
:1023C00080B2019029E00A2095FBF0F0744931F8C1
:1023D00010000A2195FBF1F201FB1251714A32F80B
:1023E00011100844404480B2019016E0632D02DDD4
:1023F000CDF8048011E00A2095FBF0F0684931F82F
:1024000010000A2195FBF1F201FB1251654A32F8E6
:1024100011100844404480B20190607920B10298C4
:1024200000F5004080B20290DDE9010140EA01437D
:1024300001221146002000F04FFA5B490978C1F1F2
:10244000050000F08FFF00200090A07818B14FF435
:102450008040009002E04FF4004000905646A07883
:1024600030B90AEBCA00052190FBF1F0203046B2EA
:10247000002E05DA704246B20BF102001FFA80FB13
:10248000632E06DDA6F1630046B20BF105001FFACC
:1024900080FB0A2096FBF0F0444931F810000A2135
:1024A00096FBF1F201FB1261414A32F8111001442E
:1024B0000098084480B20290632F02DD0020019052
:1024C00010E00A2097FBF0F03A4931F810000A2199
:1024D00097FBF1F201FB1271374A32F811100844F0
:1024E00080B201904FF00009E07818B109F5804002
:1024F0001FFA80F9207918B109F500401FFA80F918
:102500000198484480B201900122D1022B48FEF785
:10251000D9F92548007800F025FFDDE9010140EAFE
:10252000014301220021104600F0D6F91E49097826
:10253000C1F1050000F016FF012211031F48FEF74C
:10254000C1F91948007800F00DFF4FEA0B43002253
:102550000121084600F0C0F913490978C1F10500CE
:1025600000F000FF0122D1031448FEF7ABF90E483A
:10257000007800F0F7FEA07930B100224FF48071AE
:102580000F48FEF79FF904E0012211020C48FEF704
:1025900099F907B0BDE8F08F2A0100203E01002024
:1025A000C0000020C60000209C0000200201002086
:1025B00016010020DA000020EE0000200008014093
:1025C000000C01402DE9FC4107460E4615461C460D
:1025D00000F0C8FF32490968401AB0F5FA7F0BD9FC
:1025E0003048007808B9012000E000202D4908702B
:1025F00000F0B8FF2A4908602B48007828BB29481A
:102600000078C8B1E078012809D12849CDE9005403
:10261000087833460122FF21FFF7A2FE3EE0207931
:1026200001283BD12249CDE90054087833460122E4
:10263000FF21FFF795FE31E033460122FF210846D6
:10264000CDE90054FFF78CFE28E0174800780128F8
:1026500024D114480078C8B1E078012809D1134981
:10266000CDE90054487833460122FF21FFF778FE78
:1026700014E02079012811D10D49CDE900544878A2
:1026800033460122FF21FFF76BFE07E033460122AC
:10269000FF210846CDE90054FFF762FEBDE8FC814A
:1026A000AC000020A80000207E0000207F00002059
:1026B000830000202DE9FC4104460F4690461D464C
:1026C0000026607A012806D1207A012803D160799A
:1026D0000C30C6B200E066792878012806D10C2EAD
:1026E00004DDA6F10C00C6B201206870CDE90085BA
:1026F000A1793B460D4802783046FFF731FE00F0E5
:1027000031FF0B490968401AB0F5FA7F0BD9074829
:10271000007808B9012000E000200449087000F0AA
:1027200021FF03490860BDE8FC810000A8000020EB
:10273000AC00002010B500F0B7F800F013FF01491D
:10274000086010BDAC0000202DE9FC4706460F468E
:1027500014461D4600F006FF50490968401AB0F5BE
:10276000FA7F0BD94E48007808B9012000E000201C
:102770004B49087000F0F6FE484908604948007867
:1027800038BB47480078A8B13088642190FBF1F24B
:1027900001FB120000F0FF08308890FBF1F000F020
:1027A000FF093B46002241464846CDE90045FFF778
:1027B000D7FD71E03088642190FBF1F000F0FF0854
:1027C0003B460022FF214046CDE90045FFF7C8FD0A
:1027D00062E034480078012814D13148007840B1D3
:1027E000CDE90045B0783B460022FF21FFF7B8FD58
:1027F00052E03B460022FF210846CDE90045FFF7A5
:10280000AFFD49E027480078022814D12448007819
:1028100040B1CDE90045F1783B460022FF20FFF7AB
:102820009FFD39E03B460022FF210846CDE90045E7
:10283000FFF796FD30E01B480078032814D11848B4
:10284000007840B1CDE9004570793B460122FF2177
:10285000FFF786FD20E03B460122FF210846CDE937
:102860000045FFF77DFD17E00E480078042813D1DE
:102870000B48007840B1CDE90045B1793B460122D3
:10288000FF20FFF76DFD07E03B460122FF210846D0
:10289000CDE90045FFF764FDBDE8FC87AC000020F2
:1028A000A80000207D00002010B500224FF4007128
:1028B0000148FEF707F810BD000C014010B50122D9
:1028C00008210448FDF7FEFF012210210148FDF711
:1028D000F9FF10BD000C01402DE9F04105460E4600
:1028E00090461F4600241BE04FF00040E040384077
:1028F00028B1012280211F48FDF7E4FF04E00022F7
:1029000080211C48FDF7DEFF012240211948FDF718
:10291000D9FF002240211748FDF7D4FF601CC4B244
:10292000202CE1DB012220211248FDF7CBFF002201
:1029300020211048FDF7C6FF2A464FF400610E48DB
:10294000FDF7C0FF32464FF480510B48FDF7BAFF48
:1029500042464FF400410848FDF7B4FF0022082129
:102960000448FDF7AFFF002210210248FDF7AAFF3F
:10297000BDE8F081000C014000080140FDF7BAFFFE
:10298000FEF700FFFEF75AFDFEF706FE5D2204A1EA
:1029900008A0FFF735F8FFF7B3FA00BFFEE7000025
:1029A0002E2E2F436F72652F5372632F6D61696EE8
:1029B0002E6300005B25733A25645D2048656C6CCE
:1029C0006F20576F726C642120546869732069739B
:1029D0002061206465627567206D6573736167654A
:1029E0002E0D0A002DE9F04105460E4626480768DF
:1029F00026480068001D00F023FC50B923480068F9
:102A000090F82C1001208840214909688143204812
:102A10000160681CD8B9D6B11E4948681B490968CD
:102A200088601A4982680968CA6018490968091DDE
:102A30008268516015490968091D8160154A13496A
:102A400009684A6111460968491C11601AE07C193D
:102A50000E4800684460BC4207D20C480168091D5A
:102A60000D48006800F010FC0CE008480168091DE2
:102A70000A48006800F008FC09480068844201D256
:102A800007480460BDE8F081240000201000002009
:102A9000280000205C020020180000201400002004
:102AA0004000002010B5044600F008FC2F480068E4
:102AB000401C2E4908602E48006840B92C4804602C
:102AC0000846006801280DD100F016F90AE02948EF
:102AD000006838B926480068C06AE16A884201D8AF
:102AE0002348046024480068401C2349086094F887
:102AF0002C10012088402149096808431F490860BB
:102B0000E16A01EB81011E4A02EB81014868A06085
:102B10008268E260211D826851608160E16A01EB98
:102B20008101174A02EB81026261E16A01EB8101D6
:102B3000134A52F82110491CE26A02EB8202104B40
:102B400043F8221000F0CCFB0A48006868B108483E
:102B50000068C06AE16A884207D24FF08050094994
:102B60000860BFF34F8FBFF36F8F10BD20000020B0
:102B7000100000202C0000203C0000202800002035
:102B8000A801002004ED00E010B516E000F096FB6F
:102B90000C48C068C468201D00F052FB0A48006859
:102BA000401E0949086009480068401E074908603E
:102BB00000F096FB204600F00BF80448006800285F
:102BC000E4D110BD48020020200000201C0000209D
:102BD00010B50446206B00F093FB204600F090FBFC
:102BE00010BD000030B54FF48843154800F00704CD
:102BF0002CB1C01D20F00700114C041B1B1B02460A
:102C0000104C226000240F4D6C60D018083820F062
:102C100007000D4C206000240B4D2D686C600A4DA0
:102C20002D682C601146441A4C60074C24680C60D7
:102C3000064D4C682C60064D4C682C6030BD000081
:102C4000700200205000002058000020600000208A
:102C50005C00002000BFFFF797FF064800680128CE
:102C6000F9D94FF0805004490860BFF34F8FBFF38C
:102C70006F8FF0E7A801002004ED00E02DE9FF5F71
:102C800080460E469146DDE90E7A109CA9F10100BE
:102C9000216B01EB800B2BF0070B7EB1002507E0C9
:102CA000715D04F134004155705D00B902E06D1CA6
:102CB000102DF5D300BF002143200155052F00D36F
:102CC0000427E762201D00F0DCFA04F1180000F090
:102CD000D8FA2461C7F10500A061646241465846F4
:102CE000039A00F007F92060BAF1000F01D0CAF88A
:102CF0000040BDE8FF9F000010B5002407E004EB92
:102D000084010F4A02EB810000F0AEFA641C052C2E
:102D1000F5D30C4800F0A8FA0B4800F0A5FA0B48D0
:102D200000F0A2FA0A4800F09FFA0A4800F09CFA64
:102D300004480949086004480849086010BD0000BB
:102D4000A80100200C0200202002002034020020F4
:102D5000480200205C02002014000020180000201F
:102D600010B50146164800E0006803688B42FBD3AB
:102D70000246436813448B4204D143684C682344A1
:102D8000436001460A464B6813440468A34211D1CC
:102D90000C4C03682468A34208D04B68046864683C
:102DA00023444B6003681B680B6005E0054B1B6800
:102DB0000B6001E003680B60884200D0016010BD29
:102DC000500000205800002009480068006808B939
:102DD000012000E0002020B14FF0FF3005490860DD
:102DE00005E003480068C068006802490860704751
:102DF000140000204000002000BFBF2080F3118895
:102E0000BFF34F8FBFF36F8F00BF00BFFEE700001F
:102E10002DE9F04705464FF0000900F0F3FA30487D
:102E2000006808B9FFF7DEFE75B105F00700C0F1D4
:102E30001008C8F1FF30A84201D2012000E00020B4
:102E400008B9454400E00025012000EBE5700028AA
:102E500041D0002D3FD02348006885423BD8224E08
:102E60003046046801E0264624686068A84202D221
:102E700020680028F7D11A48006884422BD03068B7
:102E800000F10809206830606068401B102807D9ED
:102E900067196068401B786065603846FFF760FF1F
:102EA000104960680968081A0E49086008460068F9
:102EB0000E490968884203D20A4800680B49086035
:102EC000606840F0004060600020206008480068B2
:102ED000401C0749086000F013FC4846BDE8F08735
:102EE000580000205C0000205000002060000020FE
:102EF00064000020001F4FF080730360001F21F06A
:102F000001030360001F034B036014380260203884
:102F100070470000F92D0008FEF75EFB0024002535
:102F200098E04D48407918B14C480079062822DADB
:102F30004B48007800281ED14748C078012841D16D
:102F4000484890F90000454991F9051088422DD173
:102F5000444890F90100414991F90610884225D171
:102F60004048807840B901203E4988703E48057845
:102F70000020FEF759FB69E03A488078012865D1C6
:102F80003848C078002861D1601CC4B2052C02DB2F
:102F90000020FEF749FB34480078854256D0FE20D9
:102FA000FEF742FB01202F49C8704FE02D48807882
:102FB00001284BD100202B49C8708870FE20FEF7F5
:102FC00033FB43E02448007901283FD1274890F99A
:102FD0000000224991F9051088422CD1234890F92C
:102FE00001001E4991F90610884224D11F488078BB
:102FF00040B901201D4988701B4805780020FEF764
:1030000013FB23E01948807801281FD11748C078A6
:10301000E0B9601CC4B2052C02DB0020FEF704FB03
:1030200011480078854211D0FE20FEF7FDFA0120FC
:103030000E49C8700AE00D488078012806D10020AA
:103040000A49C8708870FE20FEF7CCFA4FF47A70F7
:1030500000F088F965E70000870000207046002036
:103060007C0000207F0000209C00002083000020C6
:10307000FDF716F9092413E0601CC4B20A2C04DD24
:1030800008490948FDF71AF9002408480078012882
:1030900002D00748FEF7CCFD4FF47A7000F062F9D9
:1030A000EAE7000075000020740000207C0000208A
:1030B00070460020FFF73EFB35E01B4800780128F2
:1030C0002FD11A48007818B11848007803280AD17F
:1030D000174B184890F90020174890F9001017482E
:1030E000FFF7E8FA1FE01148007801280AD1104BD9
:1030F000104890F90020104890F900100F48FFF791
:1031000023FB10E00948007801280CD1084B09483E
:1031100090F90020084890F900100848FFF752FA8B
:1031200001E0FFF7CBFBC8E7940000207C00002003
:1031300087000020750000207400002070460020E9
:1031400021E01148007810B9FEF7AEFF05E00E4807
:103150000078012801D1FFF729F8FEF767FFFEF795
:1031600045FB0446012C0AD108480078401C074959
:10317000087008460078052801DB0020087032201E
:1031800000F0F0F800BFDCE77C0000209C0000208D
:10319000FEF722FA28490978E031C8B2FEF744FA6E
:1031A000632547E025480078032840D1681CC5B254
:1031B000642D03DB0020FEF737FA0025FEF7A2F8A6
:1031C0000446032C13D11C480078401C40B21A4915
:1031D0000870084690F90000072801DD07200870F4
:1031E00015490978E031C8B2FEF71EFA1EE0042C3A
:1031F00013D111480078401E40B20F4908700846AC
:1032000090F90000002801DA002008700A490978C6
:10321000E031C8B2FEF708FA08E0052C06D1FE201E
:10322000FEF702FA002005490870632500BF32202E
:1032300000F098F8B6E70000A40000207C00002011
:1032400001460A69D1E901309860D1E9010358606B
:103250005068884201D18868506000200861106879
:10326000401E10601068704700F1080141604FF087
:10327000FF31816000F10801C1600161002101603E
:10328000704700210161704710B502460B685C1C55
:103290000CB9106907E002F1080000E040684468DA
:1032A00024689C42FAD944684C604C68A1608860EC
:1032B00041600A611468641C146010BD00BFBF2027
:1032C00080F31188BFF34F8FBFF36F8F00BF0348A8
:1032D0000068401C01490860704700006C00002035
:1032E00006480068401E054908600846006820B985
:1032F000002080F3118800BF00BF70476C000020E1
:1033000070B506463546E6B1083D2C466068C00FEC
:10331000B8B12068A8B9606820F00040606000F093
:1033200071F8084960680968084406490860204641
:10333000FFF716FD04480068401C0349086000F0D0
:10334000DFF970BD5C0000206800002000204FF015
:10335000E0210861886102484861072008617047E0
:103360003F19010070B50446002544B100F04AF849
:1033700000212046FFF736FB00F0C2F905463DB9B3
:103380004FF0805003490860BFF34F8FBFF36F8F3A
:1033900070BD000004ED00E01CB5124800210B4692
:1033A0008022CDE9001010A1114800F097F80446E2
:1033B000012C14D100BFBF2080F31188BFF34F8FC1
:1033C000BFF36F8F00BF4FF0FF300A490860012044
:1033D0000949086000200949086000F04BF80848D6
:1033E00000681CBD4400002049444C45000000001A
:1033F000552C0008400000202C0000202400002054
:103400004800002002480068401C014908607047DD
:103410004C0000201248006818B1012011490860D2
:103420001DE000200F4908600F480068B0FA80F0E6
:10343000C0F11F0101EB81020C4B03EB82004268DB
:103440005268426000F108024368934202D1426828
:10345000526842604268D268054B1A6000BF7047EC
:103460004C0000203400002028000020A80100208B
:103470001000002010B50A48006840F47F00084999
:1034800008600846006840F07F400860FFF75EFF74
:10349000002004490860FCF747FE002010BD000032
:1034A00020ED00E06C00002010B500BFBF2080F3CD
:1034B0001188BFF34F8FBFF36F8F00BF00F058F834
:1034C00018B14FF080500449086000BF002080F31D
:1034D000118800BF10BD000004ED00E02DE9FF4F92
:1034E00085B0804689461746DDE912ABB800FFF784
:1034F0008FFC064676B14C20FFF78AFC04462CB1BF
:103500004C212046FCF763FE266304E03046FFF7BB
:10351000F7FE00E000247CB10020CDE900ABCDE94E
:1035200002403A4649464046089BFFF7A7FB204623
:10353000FFF7B8FA012501E04FF0FF35284609B042
:10354000BDE8F08F0549096809B9012005E0044983
:10355000096809B9022000E0002070472C00002013
:103560004C0000200149086870470000240000203A
:103570002DE9F04100275748006800287ED15648C1
:103580000068451C544805608DB95448D0F8008047
:1035900053480068514908605148C0F800805148BC
:1035A0000068401C4F490860FFF70EFC00BF4E4802
:1035B0000068854276D300BF48480068006808B9B3
:1035C000012000E0002020B14FF0FF3046490860A4
:1035D00067E042480068C068C4686668B54202D2C5
:1035E000414806605DE06069D4E902128A60D4E96E
:1035F00002214A60211D42688A4201D1E16841608E
:10360000002262610168491E0160A06A98B1A06A47
:10361000D4E907128A60D4E907214A6004F118014D
:1036200042688A4201D1216A41600022A262016897
:10363000491E016000BF94F82C10012088402B49DE
:103640000968084329490860E16A01EB8101284AB9
:1036500002EB81014868A0608268E260211D8268F7
:1036600051608160E16A01EB8101214A02EB810234
:103670006261E16A01EB81011D4A00E022E052F83B
:103680002110491CE26A02EB8202194B43F8221016
:103690001849E06A0968C96A88428DD901278BE711
:1036A00000E000BF13480068C06A00EB80001049CA
:1036B00051F82000012800D901270F48006800B107
:1036C000012704E00D480068401C0C49086038469A
:1036D000BDE8F0814C0000202400002014000020F0
:1036E00018000020380000204000002028000020A2
:1036F000A80100201000002034000020300000202D
:1037000070B500240026FFF7D9FD4B480068401E25
:10371000494908600846006800287DD1474800688C
:10372000002879D05BE04648C068C468A06AD4E944
:1037300007128A60D4E907214A6004F1180142683F
:103740008A4201D1216A41600022A2620168491EB9
:1037500001606069D4E902128A60D4E902214A60FA
:10376000211D42688A4201D1E16841600022626104
:103770000168491E016094F82C10012088403149ED
:10378000096808432F490860E16A01EB81012E4A6C
:1037900002EB81014868A0608268E260211D8268B6
:1037A00051608160E16A01EB8101274A02EB8102ED
:1037B0006261E16A01EB8101234A52F82110491C40
:1037C000E26A02EB8202204B43F822101F49E06AB2
:1037D0000968C96A884202D301201D490860184857
:1037E000006808B9012000E0002000289BD00CB13F
:1037F000FFF7EAFA1748056865B100BFFFF7B8FEA2
:1038000010B10120124908606D1E002DF6D1002074
:10381000104908600E4800E009E0006838B1012650
:1038200030070D490860BFF34F8FBFF36F8FFFF76D
:1038300057FD304670BD00004C00002020000020E5
:103840003402002028000020A801002010000020E1
:10385000340000203000002004ED00E002030405E5
:10386000060708090A0B0C0D0E0F101001020000CC
:103870000000000000000102030406070809000020
:103880000000010203040000A83800080000002026
:103890006001000034020008F038000860010020D8
:1038A00020490000681A0008413210420103391211
:1038B0007A0223041AAA0101193981F90B51021D58
:1038C000051206125B13801F1603802D8027380D0A
:1038D000338036803E8003803F80373F1A124F127C
:1038E00066126D127D1207127F0A636F28E10000D5
:04000005080000ED02
:00000001FF
